:020000040800F2
:1000000024100020B51700080D2700081927000844
:1000100021270008292700083127000800000000D8
:100020000000000000000000000000003927000868
:100030004527000800000000512700085D27000840
:10004000311800083118000831180008311800086C
:10005000311800083118000831180008311800085C
:10006000311800083118000831180008C1270008AD
:10007000311800083118000831180008311800083C
:10008000311800083118000831180008311800082C
:10009000311800083118000831180008311800081C
:1000A000311800083118000831180008311800080C
:1000B00031180008311800083118000831180008FC
:1000C00031180008311800083118000831180008EC
:1000D00031180008311800083118000831180008DC
:1000E0003118000831180008692700083118000885
:1000F00031180008311800083118000831180008BC
:1001000031180008311800083118000831180008AB
:10011000311800083118000831180008311800089B
:10012000311800083118000831180008311800088B
:10013000311800083118000831180008311800087B
:10014000311800083118000831180008AD270008E0
:10015000311800083118000831180008311800085B
:10016000311800083118000831180008311800084B
:10017000311800083118000831180008311800083B
:10018000311800083118000890B484B000AF02465E
:100190000B46FA71BB714FF00003FB60BB7903F0B3
:1001A00003034FEA83034FF00F0202FA03F3FB60ED
:1001B0004FF46053C4F20103BA794FEA9202D2B20B
:1001C00010464FF46052C4F20102B9794FEA91012E
:1001D000C9B201F1020152F821201146FA686FEA12
:1001E0000202114000F1020243F822104FF4605362
:1001F000C4F20103BA794FEA9202D2B210464FF428
:100200006052C4F20102B9794FEA9101C9B201F119
:10021000020152F821201146FC79BA7902F003025A
:100220004FEA820204FA02F2114300F1020243F89B
:10023000221007F11007BD4690BC704780B485B00E
:1002400000AF78604FF00003FB607B68DB684FF025
:10025000FF325A607B68DB684FF0FF325A61FB68FF
:1002600043F00043FB60FB6843F40063FB607B6882
:10027000DB68FA689A6107F11407BD4680BC7047D5
:1002800080B586B000AF78604FF00003FB744FF08C
:1002900000037B614FF00003FB604FF0030003F0AD
:1002A0005FFA7B68DB681B69FB607B6903F1010314
:1002B0007B617A694FF45463C0F203039A4202D916
:1002C0004FF000032AE0FB6803F00043002BE4D06A
:1002D0004FF000037B61FB6843F00103FB607B6828
:1002E000DB68FA681A617B68DB681B69FB607B6905
:1002F00003F101037B617A694FF45463C0F2030395
:100300009A4205D8FB6803F00103002BEBD100E013
:1003100000BF4FF0030003F023FAFB7C184607F1FF
:100320001807BD4680BD00BF80B489B000AFF8603B
:10033000B960FA71BB804FF00003FB76FB68DB7895
:10034000002B2CD14FF000037B614FF00003FB61C9
:10035000BB8803F10303002B01DA03F103034FEA27
:10036000A3037B61FB79FA6803F132034FEA83034D
:10037000D3189B683B614FF00003FB610BE0BB6847
:100380001A683B691A60FB6903F10103FB61BB68F2
:1003900003F10403BB60FA697B699A42EFD3FB7EE9
:1003A000184607F12407BD4680BC704780B489B069
:1003B00000AFF860B9601346FB804FF00003FB61AB
:1003C000FB8803F10303002B01DA03F103034FEA77
:1003D000A303BB61FB68D3F8D0307B614FF000030F
:1003E000FB610BE07B691A68BB681A60FB6903F16B
:1003F0000103FB61BB6803F10403BB60FA69BB69DD
:100400009A42EFD3BB68184607F12407BD4680BC6B
:10041000704700BF80B487B000AF78600B46FB70B8
:100420004FF000033B614FF00003FB737B684FF01C
:100430000002DA707B684FF001029A707B684FF01F
:1004400040029A80FB78012B17D14FF0A0433B610B
:100450007B684FF00102DA727B684FF008021A7075
:100460007B684FF004025A707B684FF4A072DA8008
:100470007B684FF002021A7217E0FB78002B14D150
:100480004FF00003C4F204033B617B684FF00002AD
:10049000DA727B684FF00C021A707B684FF006022C
:1004A0005A707B684FF4A062DA803A697B68DA6040
:1004B0003B6903F500631A467B681A614FF000033D
:1004C0007B6123E07B694FEA43123B69D31803F554
:1004D00010631A4679687B6903F104034FEA8303CA
:1004E000CB189A607B694FEA43123B69D31803F536
:1004F00030631A4679687B6903F114034FEA83037A
:10050000CB185A607B6903F101037B617B685B78E0
:100510001A467B699A42D5D83B6903F580631A462F
:100520007B685A613B6903F588631A467B68C3F8A8
:10053000CC204FF000037B6113E07B694FEA43124C
:100540003B69D31803F5A0631A4679687B6903F108
:1005500022034FEA8303CB189A607B6903F10103FE
:100560007B617B681B781A467B699A42E5D84FF01D
:1005700000037B6113E07B694FEA03323B69D318C8
:1005800003F580531A4679687B6903F132034FEA19
:100590008303CB189A607B6903F101037B617B685D
:1005A0001B781A467B699A42E5D83B6903F560637C
:1005B0001A467B68C3F80C21FB7B184607F11C0721
:1005C000BD4680BC704700BF80B588B000AF786082
:1005D0004FF00003FB774FF00003BB614FF00003C7
:1005E0007B614FF00003FB607B681B7A012B51D1CC
:1005F0007B68DB689B6B7B617B696FF310437B617E
:100600007B685B7A002B03D07B6943F480137B61AA
:100610007B68DB687A699A634FF00003BB617B6893
:10062000DB68DB68BB61BB696FF38613BB61BB69C9
:100630006FF39653BB61BB6943F01003BB61BB69A9
:100640006FF3C303BB61BB696FF3C713BB61BB69C6
:100650006FF35143BB61BB696FF3D343BB617B68ED
:10066000DB68BA69DA607868FFF70AFE7B68DB78D6
:10067000012B40F08980FB684FF0050262F34403D0
:10068000FB60FB6843F02003FB607B68DB68FA6873
:100690009A6079E07B68DB68DB68BB61BB6943F02B
:1006A0004003BB617B68DB68BA69DA607868FFF792
:1006B000E7FD4FF000037B617B6943F480337B618E
:1006C0007B681B7A032B03D17B6943F400337B6186
:1006D0007B6943F480237B617B6943F400237B6166
:1006E0007B6943F400137B617B685B7A002B03D04A
:1006F0007B6943F480137B617B68DB687A699A636A
:100700004FF0140003F058F87B68DB68DB68BB61CE
:100710007B681B7A032B03D1BB6943F48033BB6135
:100720007B68DB68BA69DA607B681B7A032B2BD1A4
:100730007B68DB681B6B3B613B694FF0010262F336
:100740009B633B613B696FF3D7533B613B6943F06C
:1007500080533B613B694FF02D0262F316433B61CE
:100760007B68DB683A691A634FF0C80003F024F82D
:100770003B6943F400033B617B68DB683A691A63B9
:100780004FF0C80003F018F87B68DB78012B11D11B
:100790007B68DB689B68FB60FB684FF0050262F3D7
:1007A0004403FB60FB6843F02003FB607B68DB686D
:1007B000FA689A60FB7F184607F12007BD4680BDA6
:1007C00080B485B000AF78604FF00003FB734FF04A
:1007D0000003BB60BB6843F00103BB607B68DB6860
:1007E0007A68D26892681146BA680A439A60FB7BBD
:1007F000184607F11407BD4680BC704780B485B029
:1008000000AF78604FF00003FB734FF00003BB6054
:10081000BB6843F00103BB607B68DB687A68D26821
:1008200092681146BA686FEA02020A409A60FB7B3E
:10083000184607F11407BD4680BC704780B586B0E6
:1008400000AF786039604FF00003FB744FF0000395
:100850007B614FF00003FB60FB6843F02003FB600B
:100860003B68DBB203F01F03DAB2FB6862F38A1362
:10087000FB607B68DB68FA681A617B68DB681B6970
:10088000FB607B6903F101037B617A694FF4546378
:10089000C0F203039A4205D8FB6803F02003002B43
:1008A000EBD100E000BF4FF0030002F059FFFB7CEA
:1008B000184607F11807BD4680BD00BF80B586B059
:1008C00000AF78604FF00003FB744FF000037B61D2
:1008D0004FF00003FB60FB6843F01003FB607B6894
:1008E000DB68FA681A617B68DB681B69FB607B69FF
:1008F00003F101037B617A694FF45463C0F203038F
:100900009A4205D8FB6803F01003002BEBD100E0FE
:1009100000BF4FF0030002F023FFFB7C184607F1F5
:100920001807BD4680BD00BF80B584B000AF7860B9
:100930000B46FB704FF00003FB737B68DB68DB68E2
:10094000BB60BB686FF35D73BB60BB686FF39E7386
:10095000BB60FB78012B04D1BB6843F00053BB6044
:1009600006E0FB78002B03D1BB6843F08043BB60FB
:100970007B68DB68BA68DA604FF0320002F01CFF77
:10098000FB7B184607F11007BD4680BD80B483B0DD
:1009900000AF78607B68DB685B6903F00103184691
:1009A00007F10C07BD4680BC704700BF80B582B020
:1009B00000AF78607868FFF7E9FF0346012B0CBFB2
:1009C00000230123DBB2184607F10807BD4680BDAE
:1009D00080B485B000AF78604FF00003FB607B68A7
:1009E000DB685B69FB607B68DB689B69FA681340C6
:1009F000FB60FB68184607F11407BD4680BC7047D2
:100A000080B485B000AF78600B46FB707B681B69D3
:100A10001B68FB60FB7803F00303DAB2FB6862F348
:100A20000103FB607B681B69FA681A6007F1140711
:100A3000BD4680BC704700BF80B58CB000AF786009
:100A40004FF0000387F82B304FF000037B624FF02C
:100A500000033B624FF00003FB614FF00003BB61FA
:100A60004FF000037B617B68D3F80C314FF000023C
:100A70001A607B681B691B683B623B6A6FF3CC237F
:100A80003B627B681B693A6A1A607B68DB7A012BE0
:100A900045D178684FF00301FFF7B2FF7B68DB6850
:100AA0004FF080025A62FB694FF0400262F31F432D
:100AB000FB61FB694FF0800262F30F03FB617B680F
:100AC000DB68FA699A62BA8BFB8BD3189BB23B83C3
:100AD000BB694FF0800262F31F43BB617B68DB6838
:100AE000BA69C3F804213A8B7B8BD3189BB23B8342
:100AF000BB696FF31F43BB617B68DB68BA69C3F8EE
:100B000008213A8B7B8BD3189BB23B83BB696FF375
:100B10001F43BB617B68DB68BA69C3F80C21786846
:100B20004FF01001FFF78AFE7868FFF7C7FE7B6879
:100B30001B694FF000021A617B681B694FF00002CD
:100B40005A617B681B694FF0FF329A617B681B69B1
:100B50004FF00002DA614FF00003FB6243E07A6875
:100B6000FB6A03F104034FEA8303D3189B681B68F5
:100B70007B6297F8273023F07F03DBB2002B0BD08A
:100B80004FF000037B627B6A43F080437B627B6AA9
:100B900043F000637B6202E04FF000037B627A68FF
:100BA000FB6A03F104034FEA8303D3189B687A6A54
:100BB0001A607A68FB6A03F104034FEA8303D318CF
:100BC0009B684FF000021A617A68FB6A03F1040324
:100BD0004FEA8303D3189B684FF0FF029A60FB6AC9
:100BE00003F10103FB627B685B781A46FB6A9A4259
:100BF000B5D84FF00003FB6242E07A68FB6A03F16C
:100C000014034FEA8303D3185B681B68FB60FB7B0C
:100C100023F07F03DBB2002B0BD04FF00003FB600F
:100C2000FB6843F08043FB60FB6843F00063FB60BC
:100C300002E04FF00003FB607A68FB6A03F11403E3
:100C40004FEA8303D3185B68FA681A607A68FB6A14
:100C500003F114034FEA8303D3185B684FF00002DB
:100C60001A617A68FB6A03F114034FEA8303D3180D
:100C70005B684FF0FF029A60FB6A03F10103FB62BD
:100C80007B685B781A46FB6A9A42B6D84FF000033D
:100C90007B617B6943F480737B617B681B697A6845
:100CA0001269126911467A696FEA020211407A6983
:100CB0000A431A617B68DB78012B1ED14FF00003D9
:100CC0003B613B6943F001033B613B6943F0020335
:100CD0003B613B694FF0400262F38A033B613B6931
:100CE00043F480333B613B694FF0400262F3594368
:100CF0003B617B681B693A691A63786800F008F801
:100D000097F82B30184607F13007BD4680BD00BF6D
:100D100080B584B000AF78604FF00003FB734FF0F4
:100D20000003BB607B68DB684FF000029A617B6860
:100D3000DB684FF0FF325A617868FFF77FFA7B6813
:100D4000DB78002B03D1BB6843F01003BB60BB68AA
:100D500043F40063BB60BB6843F48053BB60BB6873
:100D600043F40053BB60BB6843F48023BB60BB68A3
:100D700043F40023BB60BB6843F00803BB60BB685F
:100D800043F48013BB60BB6843F40013BB607B6813
:100D9000DB687A68D26892691146BA686FEA020223
:100DA0001140BA680A439A61FB7B184607F11007A5
:100DB000BD4680BD80B485B000AF78604FF00003C1
:100DC000FB737B681B699B68BB60BB68C3F3410313
:100DD000DBB2022B0BD0032B05D0012B03D04FF03D
:100DE0000303FB7307E04FF00203FB7303E04FF0D4
:100DF0000103FB7300BFFB7B184607F11407BD46D8
:100E000080BC704780B487B000AF78604FF00003BB
:100E1000FB754FF00003BB607B681B699B683B61FF
:100E20007B689B691B68FB603B69C3F34103DBB2D2
:100E3000022B04D0FB686FF30A03FB6006E0FB683B
:100E40004FF0030262F30A03FB6000BF7B689B69FB
:100E5000FA681A60BB6843F48073BB607B681B69E7
:100E60007A68126952681146BA686FEA0202114044
:100E7000BA680A435A60FB7D184607F11C07BD4655
:100E800080BC704780B487B000AF786039604FF0A5
:100E90000003FB744FF00003FB604FF00003BB60E6
:100EA0003B685B78012B12D13B681B787A6803F1B1
:100EB00004034FEA8303D3189B687B613B681B786C
:100EC0004FF0010202FA03F39BB23B8111E03B6851
:100ED0001B787A6803F114034FEA8303D3185B6825
:100EE0007B613B681B784FF0010202FA03F39BB26F
:100EF0007B817B691B68FB607B7B23F07F03DBB21C
:100F0000002B29D13B689B689BB24FEA43534FEAC1
:100F100053539AB2FB6862F30A03FB603B68DB78C9
:100F200003F00303DAB2FB6862F39343FB603B68B0
:100F3000DB88DBB203F00F03DAB2FB6862F399538C
:100F4000FB60FB6843F08053FB60FB6843F40043A5
:100F5000FB60FA687B691A607B681B697A681269B2
:100F6000D2691146BA680A43DA61FB7C184607F178
:100F70001C07BD4680BC704780B487B000AF786066
:100F800039604FF00003FB744FF00003FB604FF03B
:100F90000003BB603B685B78012B12D13B681B7878
:100FA0007A6803F104034FEA8303D3189B687B61DB
:100FB0003B681B784FF0010202FA03F39BB23B81BE
:100FC00011E03B681B787A6803F114034FEA83034E
:100FD000D3185B687B613B681B784FF0010202FA13
:100FE00003F39BB27B81FB686FF3CF33FB60FA683E
:100FF0007B691A607B681B697A681269D26911463D
:10100000BA686FEA02020A40DA61FB7C184607F10F
:101010001C07BD4680BC704780B588B000AF7860C3
:1010200039604FF00003FB774FF00003BB614FF0D6
:1010300000037B614FF000033B613B685B78012B51
:1010400040F0BE803B681B787A6803F104034FEAE6
:101050008303D3189B681B687B613B681B787A68A5
:1010600003F104034FEA8303D3189B681B693B61B8
:101070003B685B69002B0AD13B696FF312033B614C
:101080003B694FF0010262F3DC433B6128E03B68BF
:101090005B6923F07F4222F478023B6962F312031A
:1010A0003B613B685A693B689B68D31803F1FF3288
:1010B0003B689B68B2FBF3F39BB24FEA83534FEA62
:1010C00093539AB23B6962F3DC433B613B68DB7844
:1010D000012B05D13B694FF0010262F35E733B6166
:1010E0003B681B787A6803F104034FEA8303D31843
:1010F0009B683A691A617B68DB78012B0CD13B68ED
:101100001B787A6803F104034FEA8303D3189B68C2
:101110003A6812695A6117E03B68DB78012B13D0FB
:101120003B685B69002B0FD03B681B784FF00102D6
:1011300002FA03F3BB617B681B697A681269526B20
:101140001146BA690A435A633B68DB78012B14D114
:101150007B681B699B68FB60FB68C3F30D239BB234
:1011600003F00103002B04D17B6943F000537B6142
:1011700003E07B6943F080537B617B6943F08063CC
:101180007B617B6943F000437B613B681B787A6835
:1011900003F104034FEA8303D3189B687A691A604A
:1011A0003B68DB78012B40F09A803B68D9683B684C
:1011B0001A783B685B699BB27868FFF7B5F88EE0F8
:1011C0003B681B787A6803F114034FEA8303D31852
:1011D0005B681B687B613B681B787A6803F11403CA
:1011E0004FEA8303D3185B681B693B613B685B690B
:1011F000002B10D13B689B6823F07F4222F47802D9
:101200003B6962F312033B613B694FF0010262F3F9
:10121000DC433B6124E03B685A693B689B68D31818
:1012200003F1FF323B689B68B2FBF3F39BB24FEADA
:1012300083534FEA93539AB23B6962F3DC433B61B9
:101240003B69C3F3C9439BB23A68926802FB03F35C
:1012500023F07F4222F478023B6962F312033B6180
:101260003B681B787A6803F114034FEA8303D318B1
:101270005B683A691A617B68DB78012B0BD13B68AC
:101280001B787A6803F114034FEA8303D3185B6871
:101290003A6812695A613B68DB78012B0CD13B68D4
:1012A0005B79002B04D07B6943F000537B6103E042
:1012B0007B6943F080537B617B6943F080637B6192
:1012C0007B6943F000437B613B681B787A6803F1DC
:1012D00014034FEA8303D3185B687A691A60FB7FB3
:1012E000184607F12007BD4680BD00BF80B489B015
:1012F00000AF786039604FF00003FB774FF00003D8
:10130000BB614FF000033B614FF00003BB603B68E3
:101310005B78012B76D17B689B697B617B691B685D
:101320003B617B691B69BB603B685B69002B0AD131
:101330003B7A6FF306033B72BB7A4FF0010262F314
:10134000C403BB7224E03B685A693B689B689A42BD
:101350000ED93B689A683B685A613B689B68DBB270
:1013600003F07F03DAB23B7A62F306033B7209E0D3
:101370003B685B69DBB203F07F03DAB23B7A62F36E
:1013800006033B72BB7A4FF0010262F3C403BB72E7
:10139000BA687B691A617B68DB78012B0BD13B68EB
:1013A0001B787A6803F104034FEA8303D3189B6820
:1013B0003A6812695A613B6943F080633B613B695B
:1013C00043F000433B613A697B691A607B68DB78D4
:1013D000002B40F084803B685B69002B7FD03B682A
:1013E0001B784FF0010202FA03F3BA691343BB61A1
:1013F0007B681B697A681269526B1146BA690A43A5
:101400005A636CE03B681B787A6803F114034FEA77
:101410008303D3185B681B683B613B681B787A6861
:1014200003F114034FEA8303D3185B681B69BB60A5
:101430003B685B69002B10D13B689B68DBB203F013
:101440007F03DAB23B7A62F306033B72BB7A4FF05A
:10145000010262F3C403BB7213E03B689A683B6805
:101460005A613B689B68DBB203F07F03DAB23B7AD8
:1014700062F306033B72BB7A4FF0010262F3C403CE
:10148000BB723B681B787A6803F114034FEA83034D
:10149000D3185B68BA681A617B68DB78012B0BD1C3
:1014A0003B681B787A6803F114034FEA8303D3186F
:1014B0005B683A6812695A613B6943F080633B613B
:1014C0003B6943F000433B613B681B787A6803F15A
:1014D00014034FEA8303D3185B683A691A60FB7FF1
:1014E000184607F12407BD4680BC704780B487B01A
:1014F00000AF786039604FF00003FB754FF00003D8
:10150000FB603B685B78012B1ED13B681B787A68D7
:1015100003F104034FEA8303D3189B683B613B69E3
:101520001B68FB60FB7B23F07F03DBB2002B03D047
:10153000FB6843F08043FB60FB6843F40013FB60EF
:10154000FA683B691A6013E03B681B787A6803F11C
:1015500014034FEA8303D3185B683B613B691B6844
:10156000FB60FB6843F40013FB60FA683B691A6098
:10157000FB7D184607F11C07BD4680BC704700BFC5
:1015800080B487B000AF786039604FF00003FB741F
:101590004FF00003FB603B685B78012B0AD13B688E
:1015A0001B787A6803F104034FEA8303D3189B681E
:1015B0007B6109E03B681B787A6803F114034FEA0A
:1015C0008303D3185B687B617B691B68FB60FB68E6
:1015D0006FF35553FB603B68DB78032B03D03B680C
:1015E000DB78022B03D1FB6843F08053FB60FA6881
:1015F0007B691A60FB7C184607F11C07BD4680BC5E
:10160000704700BF80B485B000AF78607B681B690D
:101610009B69FB607B681B69DB69FA681340FB60B0
:10162000FB684FEA1343184607F11407BD4680BC18
:10163000704700BF80B485B000AF78600B46FB7088
:10164000FB787A6803F114034FEA8303D3185B68CD
:101650009B68FB607B681B695B69FA681340FB60F1
:10166000FB68184607F11407BD4680BC704700BFF1
:1016700080B485B000AF78607B681B699B69FB60B4
:101680007B681B69DB69FA681340FB60FB684FEA03
:1016900003434FEA1343184607F11407BD4680BCC5
:1016A000704700BF80B487B000AF78604FF0000390
:1016B0003B61FB7C43F0C003FB74BB7C4FF0010239
:1016C00062F3C403BB743B7C4FF0180262F3060361
:1016D0003B747B685B6D3A691A617B68DB78012B30
:1016E00017D14FF00003FB607B685B6D7A6802F5F1
:1016F000B9625A617B685B6D1B68FB60FB6843F0F5
:101700000043FB604FF08023FB607B685B6DFA68F1
:101710001A6007F11C07BD4680BC704780B485B0D5
:1017200000AF78607B689B7A002B1BD07B681B69BD
:101730009B68FB603B7B03F00103DBB2002B11D005
:101740007B6803F586731B68BB60BB686FF341035E
:10175000BB60BB686FF30003BB607B68D3F80C31E0
:10176000BA681A6007F11407BD4680BC704700BF15
:1017700080B400AFBD4680BC704700BF80B483B06A
:1017800000AF0346FB7107F10C07BD4680BC7047F4
:1017900080B400AFBD4680BC704700BF80B400AFCE
:1017A000BD4680BC704700BF80B400AFBD4680BC62
:1017B000704700BF80B582B000AF45F2D463C0F679
:1017C00000037B6040F20003C2F200033B600BE0C9
:1017D0007B681A683B681A603B6803F104033B604E
:1017E0007B6803F104037B603A6840F21013C2F295
:1017F00000039A42ECD30B480B494FF00002884299
:10180000B8BF40F8042BFADBDFF82000016841F490
:101810007001016001F0E0FB00F09AFC07F108079D
:10182000BD4680BD100100202808002088ED00E0A2
:1018300080B400AFFEE700BF80B584B000AF0346C0
:10184000FB71FA7945F23463C0F6000353F8223095
:1018500018464FF0010100F07DFEFA7945F22C6345
:10186000C0F6000333F81230BB604FF001033B7346
:101870004FF00003BB734FF00103FB734FF0020303
:101880007B73FA7940F21C03C2F2000353F8222062
:1018900007F108031046194601F080FA07F1100716
:1018A000BD4680BD80B483B000AF0346FB71FA79BA
:1018B00040F21C03C2F2000353F82220F97945F2EA
:1018C0002C63C0F6000333F81130138307F10C07C3
:1018D000BD4680BC704700BF80B483B000AF0346F4
:1018E000FB71FA7940F21C03C2F2000353F8222084
:1018F000F97945F22C63C0F6000333F811305383B5
:1019000007F10C07BD4680BC704700BF80B588B0AA
:1019100000AF02460B46FA71BB71FA7945F2486393
:10192000C0F6000353F8223018464FF0010100F0D2
:1019300011FE4FF480404FF0010100F063FE4FF0C4
:1019400000033B774FF00003FB77FA7945F24463DD
:10195000C0F6000333F81230BB61FA7940F22C0371
:10196000C2F2000353F8222007F11803104619466B
:1019700001F014FABB79012B3AD1FA7945F25063A0
:10198000C0F600039A5CF97945F25463C0F600038F
:101990005B5C10461946FEF7F7FBFA7945F24C639B
:1019A000C0F6000333F812303B614FF000033B7583
:1019B0004FF008037B754FF00103BB7507F110036F
:1019C000184603F0FDF9FA7945F25863C0F60003B2
:1019D0009B5C3B734FF00F037B734FF00F03BB73A4
:1019E0004FF00103FB7307F10C03184603F0AEFA46
:1019F00007F12007BD4680BD80B582B000AF034629
:101A0000FB71FA7940F22C03C2F2000353F8222052
:101A1000F97945F24463C0F6000333F811301046FB
:101A2000194601F065FA0346184607F10807BD4656
:101A300080BD00BF80B582B000AF78600B46FB7000
:101A400078684FF081014FF03F024FF0030303F03D
:101A500085FB78684FF001014FF03F024FF0030320
:101A600003F07CFB78684FF0010140F21C12C2F2D7
:101A700000024FF03F0303F005FC4FF0000318464F
:101A800007F10807BD4680BD80B582B000AF786021
:101A90000B46FB7078684FF0810103F0B5FB786866
:101AA0004FF0010103F0B0FB4FF00003184607F1BF
:101AB0000807BD4680BD00BF80B584B000AF786028
:101AC00039604FF00003FB814FF00003BB603B68BF
:101AD0001B7803F06003002B53D0202B40F096803E
:101AE0003B685B78A3F10203092B42D801A252F8AC
:101AF00023F000BF5F1B0008311B0008731B0008A8
:101B0000731B0008731B0008731B0008731B00087D
:101B1000731B0008451B00081D1B00083B685B8801
:101B2000DBB21A4640F21413C2F200031A6027E037
:101B3000786840F21411C2F200014FF0010203F084
:101B4000E5FC1DE03B685B884FEA13239BB2DBB2E8
:101B50001A4640F21813C2F200031A6010E07868C7
:101B600040F21811C2F200014FF0010203F0CEFC66
:101B700006E07868396802F0BDFA4FF0020347E0EA
:101B800044E03B685B780A2B2CD00B2B34D0062B1F
:101B90003CD13B685B884FEA13239BB2222B0BD1CD
:101BA0003B68DB88172B28BF1723FB8140F2880393
:101BB000C2F20003BB600EE03B685B884FEA132370
:101BC0009BB2212B07D1154BBB603B68DB88092BEF
:101BD00028BF0923FB81FB897868B9681A4603F09E
:101BE00095FC13E0786840F21011C2F200014FF04A
:101BF000010203F08BFC09E03B685B88DBB21A460C
:101C000040F21013C2F200031A6000BF4FF000034D
:101C1000184607F11007BD4680BD00BF6E000020CA
:101C200080B584B000AFF860B9601346FB80FB68F4
:101C300093F81231032B06D1FB88F8684FF081012D
:101C4000BA6803F065FB4FF00003184607F1100770
:101C5000BD4680BD80B483B000AF03463960FB71E0
:101C60003B684FF029021A8040F25C03C2F2000385
:101C7000184607F10C07BD4680BC704780B582B09E
:101C800000AF78600B46FB7078684FF0810103F07D
:101C900001FC4FF00003184607F10807BD4680BD60
:101CA00080B584B000AF78600B46FB704FF0000346
:101CB000FB7311E097F90F2097F90F1040F21C13F6
:101CC000C2F20003595C40F2B813C2F20003995407
:101CD000FB7B03F10103FB7397F90F303F2BE9DD29
:101CE00078684FF0010140F21C12C2F200024FF07E
:101CF0003F0303F0C7FA4FF00003184607F110073F
:101D0000BD4680BD80B584B000AFF8607A603B60AE
:101D10000B46FB72F86801F07FFCF86800F01EF8D3
:101D2000FB683A68C3F8E025FB68BA69C3F8E425A4
:101D3000FB687A68C3F8E825FB7AF868194603F06F
:101D400077F9FB68D3F8E4351B689847F86801F029
:101D5000E9FC07F11007BD4680BD00BF80B483B029
:101D600000AF78604FF00003184607F10C07BD463E
:101D700080BC704780B584B000AF786007F108037D
:101D80007868194602F06CF93B7A03F01F03012BC7
:101D90000AD0022B0FD0002B14D107F1080378686A
:101DA000194601F019FD16E007F108037868194695
:101DB00001F064FD0FE007F108037868194601F0AF
:101DC00093FD08E03B7A23F07F03DBB27868194685
:101DD00003F0E0FA00BF4FF00003184607F11007C8
:101DE000BD4680BD80B584B000AF78600B46FB7007
:101DF000FB78002B45D17B6803F55C73FB607B6847
:101E000093F81131032B4FD1FB68DA69FB689B68AB
:101E10009A4221D9FB68DA69FB689B68D21AFB6891
:101E2000DA617B68DB78012B06D1FB68DA68FB6836
:101E30009B68D218FB68DA60FB68DA68FB6899680F
:101E4000FB68DB69994238BF0B469BB27868114644
:101E50001A4603F097FB27E07B68D3F8E0351B694F
:101E6000002B0AD07B6893F81231032B05D17B68D5
:101E7000D3F8E0351B6978689847786803F09AFBD7
:101E800012E07B68D3F8E0359B69002B0CD07B68AF
:101E900093F81231032B07D17B68D3F8E0359B69A7
:101EA000FA787868114698474FF00003184607F112
:101EB0001007BD4680BD00BF80B584B000AF78601C
:101EC0000B46FB70FB78002B63D17B6803F58C73AA
:101ED000FB607B6893F81131022B6ED1FB68DA69E5
:101EE000FB689B689A421CD9FB68DA69FB689B68AF
:101EF000D21AFB68DA617B68DB78012B06D1FB68BC
:101F0000DA68FB689B68D218FB68DA60FB68DA68FD
:101F1000FB68DB699BB2786811461A4603F01AFB2E
:101F20004BE0FB681B6AFA689268B3FBF2F102FBB4
:101F300001F29B1A002B17D1FB681A6AFB689B6899
:101F40009A4211D3FB681A6AFB685B6A9A420BD209
:101F500078684FF000014FF0000203F0FBFAFB68D5
:101F60004FF000025A6229E07B68D3F8E035DB6865
:101F7000002B0AD07B6893F81231032B05D17B68C4
:101F8000D3F8E035DB6878689847786803F030FB71
:101F900013E07B68D3F8E0355B69002B0ED07B68DB
:101FA00093F81231032B09D17B68D3F8E0355B69D4
:101FB000FA7878681146984700E000BF4FF00003B8
:101FC000184607F11007BD4680BD00BF80B582B03E
:101FD00000AF786078684FF000014FF040024FF09A
:101FE000000303F0BBF878684FF080014FF0400227
:101FF0004FF0000303F0B2F87B684FF0010283F862
:1020000012217B68D3F8E4355B687A6892781046D1
:1020100098474FF00003184607F10807BD4680BDFA
:1020200080B582B000AF78607B68D3F8E4351B6977
:1020300098477B684FF0030283F812214FF00003AA
:10204000184607F10807BD4680BD00BF80B582B0C5
:1020500000AF78607B684FF0040283F812217B6840
:10206000D3F8E435DB6898474FF00003184607F1D2
:102070000807BD4680BD00BF80B582B000AF786064
:102080007B68D3F8E035DB69002B05D07B68D3F89B
:10209000E035DB69786898474FF00003184607F190
:1020A0000807BD4680BD00BF80B582B000AF786034
:1020B0000B46FB707B68D3F8E0351B68FA787868CC
:1020C000114698477B68D3F8E4359B6898474FF0F2
:1020D0000003184607F10807BD4680BD80B582B0F1
:1020E00000AF78600B46FB707B68D3F8E0355B6827
:1020F000FA787868114698474FF00003184607F1C0
:102100000807BD4680BD00BF80B582B000AF7860D3
:102110007B68D3F8E0351B6A786898474FF0000376
:10212000184607F10807BD4680BD00BF80B582B0E4
:1021300000AF78607B68D3F8E0355B6A78689847D1
:102140004FF00003184607F10807BD4680BD00BFE9
:1021500080B584B002AF4FF00100FFF76DFB4FF088
:102160000000FFF769FB4FF00200FFF765FB4FF03F
:102170000300FFF761FB4FF000004FF00001FFF795
:10218000C5FB4FF00100FFF78DFB4FF6FF7000F02D
:10219000D1F94FF00100FFF79FFB40F20003C2F2BC
:1021A0000003009340F2F810C2F200004FF001016A
:1021B00040F2D002C2F2000240F23003C2F2000349
:1021C000FFF7A0FD00F0C6F800E000BF4FF0FF00F1
:1021D00000F0B0F940F2B813C2F200031B7803F02C
:1021E0000103DBB2002B04D04FF00100FFF75AFBD4
:1021F00003E04FF00100FFF76FFB40F2B813C2F2AB
:1022000000031B7803F00203002B04D04FF0000002
:10221000FFF748FB03E04FF00000FFF75DFB40F2E3
:10222000B813C2F200031B7803F00403002B04D0A0
:102230004FF00200FFF736FB03E04FF00200FFF71C
:102240004BFB40F2B813C2F200031B7803F0080303
:10225000002B04D04FF00300FFF724FB03E04FF006
:102260000300FFF739FB4FF00000FFF7C5FB034603
:10227000012B36D140F26413C2F200031B78DBB2AB
:10228000012BA2D04FF000037B6040F26413C2F236
:1022900000034FF001021A704FF0FF0000F04AF9FE
:1022A0000FE07B68DBB203F10103DAB240F278138E
:1022B000C2F2000379685B181A707B6803F10103AE
:1022C0007B607B683F2BECDD40F2F810C2F200002F
:1022D00040F27811C2F200014FF04002FFF7A0FC7B
:1022E00073E740F26413C2F200031B78DBB2002BE9
:1022F0003FF46BAF4FF000033B6040F26413C2F257
:1023000000034FF000021A704FF0FF0000F012F9C6
:102310000FE03B68DBB2C3F13F03DAB240F278135F
:10232000C2F2000339685B181A703B6803F10103BD
:102330003B603B683F2BECDD40F2F810C2F200003E
:1023400040F27811C2F200014FF04002FFF768FC42
:102350003BE700BF80B59CB000AF4FF001004FF0ED
:10236000010100F0F7F84FF00203BB664FF00303E2
:1023700087F86C304FF0000387F86F3007F168037F
:102380004FF00000C4F20200194600F007FD4FF4C0
:1023900000104FF0010100F0DDF84FF480704FF0B5
:1023A000010100F02FF900F033FA46F21000C4F2F8
:1023B000020000F02DFF4FF000737B6042F2083303
:1023C000C4F20103BB6040F25C13C2F20003FB6085
:1023D0004FF000033B614FF001037B614FF00003BE
:1023E000BB614FF48063FB614FF400633B624FF4C9
:1023F00000537B624FF48073BB624FF40033FB6287
:102400004FF000033B634FF001037B634FF0000389
:10241000BB634FF00003FB6307F1040346F21000B7
:10242000C4F20200194601F015F846F21000C4F299
:1024300002004FF0010101F065F846F21000C4F20D
:10244000020048F22001C1F200014FF0010201F048
:1024500075F84FF000033B644FF000037B644FF0CE
:102460000003BB644FF00003FB6407F14003184610
:1024700000F03AFA4FF000033B654FF0010387F894
:1024800054304FF0010387F855304FF00003BB651F
:102490004FF000033B664FF0010387F8643007F10B
:1024A00050034FF40050C4F20100194600F0C0F987
:1024B0004FF40050C4F201004FF000014FF0010250
:1024C0004FF0000300F05AFA4FF40050C4F201003C
:1024D0004FF0010100F05CFB4FF40050C4F201002A
:1024E0004FF0010100F038FB4FF40050C4F201003E
:1024F0004FF0010100F026FA4FF40050C4F2010041
:1025000000F01AFB4FF4A06002F00CFD4FF00B033B
:102510003B704FF002037B704FF00003BB704FF035
:102520000103FB703B46184602F010FD07F17007EF
:10253000BD4680BD80B483B000AF78607B68002B5F
:1025400003D07B6803F1FF337B6007F10C07BD46C6
:1025500080BC704780B483B000AF78600B46FB70DE
:10256000FB78002B0DD04FF46053C4F202034FF4FC
:102570006052C4F20202126B11467A680A431A636F
:102580000EE04FF46053C4F202034FF46052C4F201
:102590000202126B11467A686FEA02020A401A635D
:1025A00007F10C07BD4680BC704700BF80B483B004
:1025B00000AF78600B46FB70FB78002B0DD04FF41A
:1025C0006053C4F202034FF46052C4F20202526B31
:1025D00011467A680A435A630EE04FF46053C4F21E
:1025E00002034FF46052C4F20202526B11467A6841
:1025F0006FEA02020A405A6307F10C07BD4680BC2D
:10260000704700BF80B483B000AF78600B46FB70AA
:10261000FB78002B0DD04FF46053C4F202034FF44B
:102620006052C4F20202526C11467A680A435A643C
:102630000EE04FF46053C4F202034FF46052C4F250
:102640000202526C11467A686FEA02020A405A642A
:1026500007F10C07BD4680BC704700BF80B483B053
:1026600000AF78600B46FB70FB78002B0DD04FF469
:102670006053C4F202034FF46052C4F20202126AC1
:1026800011467A680A431A620EE04FF46053C4F2AE
:1026900002034FF46052C4F20202126A11467A68D1
:1026A0006FEA02020A401A6207F10C07BD4680BCBD
:1026B000704700BF80B483B000AF78600B46FB70FA
:1026C000FB78002B0DD04FF46053C4F202034FF49B
:1026D0006052C4F20202526A11467A680A435A6290
:1026E0000EE04FF46053C4F202034FF46052C4F2A0
:1026F0000202526A11467A686FEA02020A405A627E
:1027000007F10C07BD4680BC704700BF80B400AF26
:10271000BD4680BC704700BF80B400AFFEE700BF7D
:1027200080B400AFFEE700BF80B400AFFEE700BF9B
:1027300080B400AFFEE700BF80B400AFBD4680BCF0
:10274000704700BF80B400AFBD4680BC704700BF7B
:1027500080B400AFBD4680BC704700BF80B400AFFE
:10276000BD4680BC704700BF80B500AF40F2F81393
:10277000C2F200039B7A002B13D04EF61053CEF218
:1027800000034EF61052CEF20002126822F006024A
:102790001A6000F021FC40F2F810C2F20000FEF7CF
:1027A000BDFF4FF4802002F0ADFB80BD80B500AFCF
:1027B00040F2F810C2F2000001F02EFD80BD00BF13
:1027C00080B500AF40F25C13C2F200031B684FEA11
:1027D000131240F26013C2F200031B684FEA131396
:1027E000D31A042B09D940F25C13C2F200031A6811
:1027F00040F26013C2F200031A6046F21000C4F205
:10280000020048F22001C1F2000100F0D3FE80BDB9
:1028100080B500AF4FF480704FF00101FFF74AFF21
:102820004FF480704FF00001FFF744FF80BD00BF00
:1028300080B485B000AF786039604FF00003FB6072
:102840004FF00003FB727B685B68FB60FB6823F062
:10285000407323F48073FB603B681B794FEA0322CB
:102860003B681B681343FA681343FB607B68FA6894
:102870005A607B689B68FB60FA684FF2FD73CCF28C
:10288000FF031340FB603B681A693B68DB681A432F
:102890003B689B681A433B685B794FEA43031343E9
:1028A000FA681343FB607B68FA689A607B68DB6AAE
:1028B000FB60FB6823F47003FB603B681B7D03F146
:1028C000FF33DAB2FB7A1343FB72FB7A4FEA03530E
:1028D000FA681343FB607B68FA68DA6207F1140751
:1028E000BD4680BC704700BF80B485B000AF786043
:1028F0004FF00003FB604FF40C53C4F201035B681C
:10290000FB60FA6843F2E003CFF6FC731340FB6010
:102910007B681A687B685B681A437B689B681A430C
:102920007B68DB681343FA681343FB604FF40C5376
:10293000C4F20103FA685A6007F11407BD4680BC6F
:10294000704700BF80B483B000AF78600B46FB7067
:10295000FB78002B06D07B689B6843F001027B6804
:102960009A6005E07B689B6823F001027B689A60AF
:1029700007F10C07BD4680BC704700BF80B485B02E
:1029800000AF7860F970BA707B704FF00003FB60A5
:102990004FF00003BB60FB78092B27D97B68DB680D
:1029A000FB60FA7813464FEA43039B18A3F11E031A
:1029B0004FF0070202FA03F3BB60BB686FEA030340
:1029C000FA681340FB607978FA7813464FEA4303BC
:1029D0009B18A3F11E0301FA03F3BB60FA68BB68FE
:1029E0001343FB607B68FA68DA6022E07B681B694E
:1029F000FB60FA7813464FEA43039B184FF0070237
:102A000002FA03F3BB60BB686FEA0303FA68134082
:102A1000FB607978FA7813464FEA43039B1801FA72
:102A200003F3BB60FA68BB681343FB607B68FA681A
:102A30001A61BB78062B27D87B685B6BFB60BB7881
:102A400003F1FF3213464FEA83039B184FF01F0236
:102A500002FA03F3BB60BB686FEA0303FA68134032
:102A6000FB60F978BB7803F1FF3213464FEA83032A
:102A70009B1801FA03F3BB60FA68BB681343FB6061
:102A80007B68FA685A6351E0BB780C2B27D87B68C7
:102A90001B6BFB60BA7813464FEA83039B18A3F1C4
:102AA00023034FF01F0202FA03F3BB60BB686FEA17
:102AB0000303FA681340FB60F978BA7813464FEACB
:102AC00083039B18A3F1230301FA03F3BB60FA68A5
:102AD000BB681343FB607B68FA681A6326E07B6877
:102AE000DB6AFB60BA7813464FEA83039B18A3F1B5
:102AF00041034FF01F0202FA03F3BB60BB686FEAA9
:102B00000303FA681340FB60F978BA7813464FEA7A
:102B100083039B18A3F1410301FA03F3BB60FA6836
:102B2000BB681343FB607B68FA68DA6207F114073D
:102B3000BD4680BC704700BF80B483B000AF7860F2
:102B40007B689B6843F080427B689A6007F10C07C2
:102B5000BD4680BC704700BF80B483B000AF7860D2
:102B60000B46FB70FB78002B06D07B689B6843F418
:102B700080727B689A6005E07B689B6823F48072B2
:102B80007B689A6007F10C07BD4680BC704700BFA8
:102B900080B483B000AF78600B46FB70FB78002BED
:102BA00006D07B689B6843F400727B689A6005E0FE
:102BB0007B689B6823F400727B689A6007F10C07BE
:102BC000BD4680BC704700BF80B483B000AF0346F1
:102BD0003960FB713B684FF012021A8040F2EC033F
:102BE000C2F20003184607F10C07BD4680BC7047CF
:102BF00080B483B000AF03463960FB713B684FF08F
:102C000004021A8040F20C13C2F20003184607F1C6
:102C10000C07BD4680BC704780B582B000AF03464C
:102C20003960FB71FB79002B0BD145F25C60C0F67B
:102C3000000040F2E871C2F200013A6801F082FA45
:102C40000AE045F27060C0F6000040F2E871C2F29E
:102C500000013A6801F076FA40F2E873C2F200032C
:102C6000184607F10807BD4680BD00BF80B582B099
:102C700000AF03463960FB7145F28460C0F6000086
:102C800040F2E871C2F200013A6801F05BFA40F2EA
:102C9000E873C2F20003184607F10807BD4680BD7D
:102CA00080B582B000AF03463960FB71FB79002B21
:102CB0000BD145F29860C0F6000040F2E871C2F214
:102CC00000013A6801F03EFA0AE045F2A860C0F659
:102CD000000040F2E871C2F200013A6801F032FAF5
:102CE00040F2E873C2F20003184607F10807BD4638
:102CF00080BD00BF80B582B000AF03463960FB7174
:102D0000FB79002B0BD145F2B860C0F6000040F211
:102D1000E871C2F200013A6801F014FA0AE045F2E3
:102D2000B860C0F6000040F2E871C2F200013A68F3
:102D300001F008FA40F2E873C2F20003184607F106
:102D40000807BD4680BD00BF80B582B000AF034616
:102D50003960FB71FB79002B0BD145F2C460C0F6E2
:102D6000000040F2E871C2F200013A6801F0EAF9AD
:102D70000AE045F2C460C0F6000040F2E871C2F219
:102D800000013A6801F0DEF940F2E873C2F2000394
:102D9000184607F10807BD4680BD00BF80B487B064
:102DA00000AF786039604FF000037B614FF00003A3
:102DB0003B614FF00003FB604FF000037B618EE04E
:102DC0007B694FF0010202FA03F33B613B681A682A
:102DD0003B691340FB60FA683B699A427BD17B6890
:102DE0001B681A467B694FEA43034FF0030101FA5F
:102DF00003F36FEA03031A407B681A607B681B6861
:102E00001A463B681B7919467B694FEA430301FA6E
:102E100003F31A437B681A603B681B79012B03D0CC
:102E20003B681B79022B38D17B689B681A467B690B
:102E30004FEA43034FF0030101FA03F36FEA030380
:102E40001A407B689A607B689B681A463B685B798E
:102E500019467B694FEA430301FA03F31A437B687F
:102E60009A607B685B681A467B699BB24FF00101F0
:102E700001FA03F36FEA03031A407B685A607B6828
:102E80005B681A463B689B7919467B699BB201FADD
:102E900003F39BB21A437B685A607B68DB681A466F
:102EA0007B699BB24FEA43034FF0030101FA03F33E
:102EB0006FEA03031A407B68DA607B68DB681A46B6
:102EC0003B68DB7919467B694FEA430301FA03F358
:102ED0001A437B68DA607B6903F101037B617B69DC
:102EE0000F2B7FF66DAF07F11C07BD4680BC704706
:102EF00080B485B000AF78600B467B804FF0000354
:102F0000FB737B681B691A467B881340002B03D038
:102F10004FF00103FB7302E04FF00003FB73FB7BF8
:102F2000184607F11407BD4680BC704780B485B0D1
:102F300000AF786013460A467A807B704FF000033A
:102F4000FB604FF00003BB607A787B8803F00703D7
:102F50004FEA830302FA03F3FB607B884FEAD30353
:102F60009BB21A467B884FEAD3039BB219467B6813
:102F700001F1080153F8213019467B8803F007035B
:102F80004FEA83034FF00F0000FA03F36FEA0303E5
:102F900019407B6802F1080243F822107B884FEA4F
:102FA000D3039BB21A467B6802F1080253F8223021
:102FB0001A46FB681343BB607B884FEAD3039BB27E
:102FC0001A467B6802F10802B96843F8221007F13B
:102FD0001407BD4680BC704780B500AF4FF46D4309
:102FE000CEF200034FF46D42CEF20002D2F88820F8
:102FF00042F47002C3F888204FF46053C4F2020315
:103000004FF46052C4F20202126842F001021A60E8
:103010004FF46053C4F202034FF000029A604FF481
:103020006053C4F202034FF46052C4F20202126809
:1030300022F0847222F480321A604FF46053C4F29A
:10304000020343F21002C2F200425A604FF460538E
:10305000C4F202034FF46052C4F20202126822F476
:1030600080221A604FF46053C4F202034FF0000252
:10307000DA6000F009F84FF46D43CEF200034FF030
:1030800000629A6080BD00BF80B483B000AF4FF093
:1030900000037B604FF000033B604FF46053C4F2C9
:1030A00002034FF46052C4F20202126842F480320A
:1030B0001A604FF46053C4F202031B6803F4003338
:1030C0003B607B6803F101037B603B68002B03D10D
:1030D0007B68B3F5A06FECD14FF46053C4F20203E8
:1030E0001B6803F40033002B03D04FF001033B6057
:1030F00002E04FF000033B603B68012B40F0828010
:103100004FF46053C4F202034FF46052C4F202025F
:10311000126C42F080521A644FF4E043C4F2000390
:103120004FF4E042C4F20002126842F480421A6096
:103130004FF46053C4F202034FF46052C4F202022F
:1031400092689A604FF46053C4F202034FF46052E5
:10315000C4F20202926842F400429A604FF4605353
:10316000C4F202034FF46052C4F20202926842F4C5
:10317000A0529A604FF46053C4F2020345F2084231
:10318000C0F240725A604FF46053C4F202034FF42D
:103190006052C4F20202126842F080721A6000BFEC
:1031A0004FF46053C4F202031B6803F00073002B5A
:1031B000F6D04FF47053C4F2020340F205621A6075
:1031C0004FF46053C4F202034FF46052C4F202029F
:1031D000926822F003029A604FF46053C4F2020333
:1031E0004FF46052C4F20202926842F002029A6006
:1031F00000BF4FF46053C4F202039B6803F00C035A
:10320000082BF6D107F10C07BD4680BC704700BF04
:1032100080B483B000AF78607B681B6823F0010244
:103220007B681A607B684FF000021A607B684FF081
:1032300000025A607B684FF000029A607B684FF092
:103240000002DA607B684FF000021A617B684FF081
:1032500021025A617A6846F21003C4F202039A42CC
:1032600007D14FF4C043C4F202034FF03D029A600D
:10327000EBE07A6846F22803C4F202039A4207D1CF
:103280004FF4C043C4F202034FF474629A60DCE06E
:103290007A6846F24003C4F202039A4207D14FF41F
:1032A000C043C4F202034FF474129A60CDE07A680E
:1032B00046F25803C4F202039A4207D14FF4C043C6
:1032C000C4F202034FF074629A60BEE07A6846F27C
:1032D0007003C4F202039A4209D14FF4C043C4F20E
:1032E00002034FF03D02C2F20002DA60ADE07A68FC
:1032F00046F28803C4F202039A4209D14FF4C04354
:10330000C4F202034FF47462C2F20002DA609CE07D
:103310007A6846F2A003C4F202039A4209D14FF43C
:10332000C043C4F202034FF00002C2F23D02DA6071
:103330008BE07A6846F2B803C4F202039A4207D1DE
:103340004FF4C043C4F202034FF03D52DA607CE018
:103350007A6846F21043C4F202039A4207D14FF44E
:10336000C843C4F202034FF03D029A606DE07A68F0
:1033700046F22843C4F202039A4207D14FF4C843ED
:10338000C4F202034FF474629A605EE07A6846F217
:103390004043C4F202039A4207D14FF4C843C4F237
:1033A00002034FF474129A604FE07A6846F2584371
:1033B000C4F202039A4207D14FF4C843C4F2020395
:1033C0004FF074629A6040E07A6846F27043C4F24B
:1033D00002039A4209D14FF4C843C4F202034FF0EA
:1033E0003D02C2F20002DA602FE07A6846F28843BA
:1033F000C4F202039A4209D14FF4C843C4F2020353
:103400004FF47462C2F20002DA601EE07A6846F29B
:10341000A043C4F202039A4209D14FF4C843C4F254
:1034200002034FF00002C2F23D02DA600DE07A685A
:1034300046F2B843C4F202039A4206D14FF4C8439D
:10344000C4F202034FF03D52DA6007F10C07BD46AB
:1034500080BC704780B485B000AF786039604FF0B1
:103460000003FB607B681B68FB60FA6848F23F035F
:10347000CFF21C031340FB603B681A683B68DB68B3
:103480001A433B685B691A433B689B691A433B6874
:10349000DB691A433B681B6A1A433B685B6A1A4341
:1034A0003B689B6A1A433B685B6B1A433B689B6BA8
:1034B0001343FA681343FB607B68FA681A607B6801
:1034C0005B69FB60FB6823F00703FB603B68DA6A1B
:1034D0003B681B6B1343FA681343FB607B68FA6815
:1034E0005A613B681A697B685A603B685A687B6816
:1034F0009A603B689A687B68DA6007F11407BD46FA
:1035000080BC704780B483B000AF78600B46FB701E
:10351000FB78002B06D07B681B6843F001027B68B8
:103520001A6005E07B681B6823F001027B681A6063
:1035300007F10C07BD4680BC704700BF80B485B062
:1035400000AFF860B9601346FB71BB6803F08003FD
:10355000002B0FD0FB79002B06D0FB685B6943F092
:103560008002FB685A6105E0FB685B6923F080021A
:10357000FB685A61BB68802B17D0FB79002B09D000
:10358000FB681B681A46BB6803F01E031A43FB68FE
:103590001A600AE0FB681B681A46BB6803F01E034A
:1035A0006FEA03031A40FB681A6007F11407BD466F
:1035B00080BC704780B485B000AF786039607A68AD
:1035C00046F20F43C4F202039A4205D84FF4C043B7
:1035D000C4F20203FB6004E04FF4C843C4F20203E8
:1035E000FB603B6803F00053002B08D03A6840F6BC
:1035F0007D73C0F67D731340FA68D36007E03A68C4
:1036000040F67D73C0F67D731340FA68936007F14E
:103610001407BD4680BC704780B584B000AF7860A9
:103620004FF001004FF00101FEF794FF4FF4D85323
:10363000BB604FF003037B734FF002033B734FF00B
:103640000003BB734FF00003FB7307F108034FF057
:103650000000C4F202001946FFF7A0FB4FF0000083
:10366000C4F202004FF008014FF00A02FFF75EFCBF
:103670004FF00000C4F202004FF009014FF00A02BF
:10368000FFF754FC4FF00000C4F202004FF00B01B2
:103690004FF00A02FFF74AFC4FF00000C4F20200AC
:1036A0004FF00C014FF00A02FFF740FC4FF480632B
:1036B000BB604FF00103BB734FF00103FB734FF08E
:1036C00003037B7307F108034FF00000C4F202000C
:1036D0001946FFF763FB4FF00000C4F202004FF001
:1036E0000A014FF00A02FFF721FC4FF480404FF02F
:1036F0000101FEF787FF4FF080004FF00101FEF758
:1037000055FF4FF080504FF00101FEF7A7FF4FF03B
:1037100000004FF00001FEF7F9F807F11007BD4671
:1037200080BD00BF80B584B000AF78604FF4C0604A
:1037300001F0F8FB4FF043033B734FF001037B7341
:103740004FF00303BB734FF00103FB7307F10C034E
:10375000184601F0FBFB07F11007BD4680BD00BF16
:1037600080B485B000AF78604FF00003FB607A68EA
:1037700013464FEA03139B1A4FEAC3031A4644F653
:103780002513C2F29243A3FB0213D21A4FEA52024C
:103790009B184FEA9303BB6000E000BFFB6803F196
:1037A0000103FB60FA68BB689A42F6D900BF07F1D3
:1037B0001407BD4680BC704780B582B000AF78600A
:1037C0007B684FF47A7202FB03F31846FFF7C8FFD9
:1037D00007F10807BD4680BD80B584B000AF7860B2
:1037E00039604FF00003FB733B685B78092B3AD8D4
:1037F00001A252F823F000BF493800085D380008E4
:103800006738000853380008673800082B3800086C
:1038100021380008673800083F38000835380008AC
:103820007868396800F052F922E07868396800F069
:1038300039FA1DE07868396800F074FA18E07868A1
:10384000396800F009FB13E07868396800F038FB4C
:103850000EE07868396800F067FB09E0786839683D
:1038600000F0D2FB04E07868396800F043FC00BF48
:10387000FB7B184607F11007BD4680BD80B584B0BC
:1038800000AF786039604FF00003FB737B6893F8FA
:103890001231032B1BD13B689B88DBB2012B11D863
:1038A0007B68D3F8E0359B687868396898473B684F
:1038B000DB88002B10D1FB7B002B0DD1786801F049
:1038C00079FE09E07868396800F014FC04E0786853
:1038D000396800F00FFC00E000BFFB7B184607F1E1
:1038E0001007BD4680BD00BF80B584B000AF7860D2
:1038F00039604FF00003FB733B689B88BB733B68E8
:103900005B78012B39D0032B02D0002B6CD0D5E093
:103910007B6893F81231022B02D0032B0CD025E0E8
:10392000BB7B002B27D0BB7B802B24D0BB7B786854
:10393000194601F02FFD1EE03B685B88002B0AD181
:10394000BB7B002B07D0BB7B802B04D0BB7B786874
:10395000194601F01FFD7B68D3F8E0359B68786855
:1039600039689847786801F025FE05E0786839687D
:1039700000F0C0FB00E000BFA1E07B6893F81231CB
:10398000022B02D0032B0CD025E0BB7B002B27D0D1
:10399000BB7B802B24D0BB7B7868194601F0FAFCF6
:1039A0001EE03B685B88002B1CD1BB7B002B0ED03C
:1039B000BB7B802B0BD0BB7B7868194601F02AFDBE
:1039C0007B68D3F8E0359B687868396898477868F1
:1039D00001F0F0FD06E07868396800F08BFB02E04A
:1039E00000BF00E000BF6AE07B6893F81231022B51
:1039F00002D0032B0CD05AE0BB7B002B5CD0BB7BEE
:103A0000802B59D0BB7B7868194601F0C3FC53E08A
:103A1000BB7B5BB2002B1FDABB7B03F07F027968B4
:103A200013464FEA83039B184FEAC303CB1803F5F1
:103A30008C739B78002B07D040F26813C2F200030E
:103A40004FF001021A6028E040F26813C2F200034E
:103A50004FF000021A6020E0BB7B5BB2002B1CDB46
:103A6000BA7B796813464FEA83039B184FEAC30376
:103A7000CB1803F55C739B78002B07D040F26813DA
:103A8000C2F200034FF001021A6006E040F2681330
:103A9000C2F200034FF000021A60786840F2681129
:103AA000C2F200014FF0020201F030FD05E078683B
:103AB000396800F01FFB00E000BF00E000BFFB7BA7
:103AC000184607F11007BD4680BD00BF80B584B021
:103AD00000AF786039603B685B884FEA13239BB284
:103AE00003F1FF33062B00F2BD8001A252F823F050
:103AF0000D3B0008433B0008733B0008653C000891
:103B0000653C0008513C00085B3C00087B68D3F82A
:103B1000E8351B687A68917807F10A020846114671
:103B200098470346FB603B68DB88402B05D07B68E9
:103B300093F81231012B40F09A804FF008037B81FB
:103B400095E07B68D3F8E0359B6A7A68917807F155
:103B50000A020846114698470346FB60FB6803F1DA
:103B600001034FF002021A707B68FA68C3F8EC2573
:103B70007EE03B685B88DBB2052B63D801A252F87C
:103B800023F000BF9D3B0008B93B0008D53B00086F
:103B9000F13B00080D3C0008293C00087B68D3F885
:103BA000E8355B687A68917807F10A0208461146A1
:103BB00098470346FB604AE07B68D3F8E8359B688A
:103BC0007A68917807F10A02084611469847034639
:103BD000FB603CE07B68D3F8E835DB687A68917875
:103BE00007F10A020846114698470346FB602EE09B
:103BF0007B68D3F8E8351B697A68917807F10A0287
:103C00000846114698470346FB6020E07B68D3F8DE
:103C1000E8355B697A68917807F10A02084611462F
:103C200098470346FB6012E07B68D3F8E8359B6950
:103C30007A68917807F10A020846114698470346C8
:103C4000FB6004E07868396800F054FA25E00FE082
:103C50007868396800F04EFA1FE07868396800F03B
:103C600049FA1AE07868396800F044FA15E000BFB4
:103C70007B89002B11D03B68DB88002B0DD03B6883
:103C8000DA887B899A4238BF13469BB27B817B8955
:103C90007868F9681A4601F039FC07F11007BD464B
:103CA00080BD00BF80B584B000AF786039603B68EC
:103CB0009B88002B2ED13B68DB88002B2AD13B68E8
:103CC0005B88DBB203F07F03FB737B6893F81231F0
:103CD000032B04D17868396800F00CFA1EE07B6889
:103CE000FA7B83F81321FB7B7868194601F0EEFB21
:103CF000786801F05FFCFB7B002B05D07B684FF000
:103D0000020283F8122109E07B684FF0010283F878
:103D1000122103E07868396800F0ECF907F1100728
:103D2000BD4680BD80B582B000AF786039603B6829
:103D30005B88DAB240F27413C2F200031A7040F2E8
:103D40007413C2F200031B78012B04D97868396818
:103D500000F0D0F97CE07B6893F81231022B02D09E
:103D6000032B25D06FE040F27413C2F200031B78DE
:103D7000002B19D040F27413C2F200031A787B684A
:103D800083F810217B684FF0030283F8122140F280
:103D90007413C2F200031B7878681946FEF784F9A1
:103DA000786801F007FC53E0786801F003FC4FE00D
:103DB00040F27413C2F200031B78002B19D17B6808
:103DC0004FF0020283F8122140F27413C2F2000392
:103DD0001A787B6883F8102140F27413C2F2000352
:103DE0001B7878681946FEF779F9786801F0E2FBEC
:103DF0002EE07B6893F8102140F27413C2F20003A6
:103E00001B789A421BD07B6893F81031786819466A
:103E1000FEF764F940F27413C2F200031A787B686B
:103E200083F8102140F27413C2F200031B78786803
:103E30001946FEF739F9786801F0BCFB08E07868AC
:103E400001F0B8FB04E07868396800F053F900BF6E
:103E500007F10807BD4680BD80B582B000AF78602D
:103E600039603B68DB88012B04D07868396800F042
:103E700041F920E07B6893F81231022B02D0032B2A
:103E80000AD013E0786840F26C11C2F200014FF0E2
:103E9000010201F03BFB0EE07B6803F58873786854
:103EA00019464FF0010201F031FB04E078683968EF
:103EB00000F020F900BF07F10807BD4680BD00BF34
:103EC00080B582B000AF786039607B6893F81231BA
:103ED000A3F10203012B1DD87B68D3F81431002B0A
:103EE00007D040F27013C2F200034FF003021A60D1
:103EF00006E040F27013C2F200034FF001021A60B4
:103F0000786840F27011C2F200014FF0010201F036
:103F1000FDFA04E07868396800F0ECF800BF07F1BA
:103F20000807BD4680BD00BF80B584B000AF786093
:103F300039604FF00003FB733B685B88012B0FD1A6
:103F40007B684FF00102C3F814217B68D3F8E03599
:103F50009B68786839689847786801F02BFB4FE0D8
:103F60003B685B88022B4BD13B689B88DBB2002B04
:103F700046D17B681B695B68BB603B689B884FEAE6
:103F800013239BB2FB73FB7B03F1FF33042B30D86D
:103F900001A252F823F000BFAD3F0008BB3F00086C
:103FA000C93F0008D73F0008E53F0008BB684FF055
:103FB000010262F30613BB601BE0BB684FF0020214
:103FC00062F30613BB6014E0BB684FF0030262F3B8
:103FD0000613BB600DE0BB684FF0040262F30613EA
:103FE000BB6006E0BB684FF0050262F30613BB60DE
:103FF00000BF7B681B69BA685A60786801F0DAFA1A
:1040000007F11007BD4680BD80B582B000AF786073
:1040100039607B6893F81231A3F10203012B13D8A6
:104020003B685B88012B15D17B684FF00002C3F819
:1040300014217B68D3F8E0359B6878683968984725
:10404000786801F0B7FA05E07868396800F052F84E
:1040500000BF00E000BF07F10807BD4680BD00BFFC
:1040600080B483B000AF786039607B6893F8C8256E
:104070003B681A707B6893F8C9253B685A707B6867
:1040800093F8CA351A467B6893F8CB354FEA032379
:104090009BB2D3189AB23B685A807B6893F8CC35B0
:1040A0001A467B6893F8CD354FEA03239BB2D318A9
:1040B0009AB23B689A807B6893F8CE351A467B6843
:1040C00093F8CF354FEA03239BB2D3189AB23B68DB
:1040D000DA803B68DB881A467B68C3F83C217B6842
:1040E0004FF0010283F8112107F10C07BD4680BC97
:1040F000704700BF80B582B000AF786039603B6820
:104100001B78DBB25BB2002B05DA78684FF08001D8
:1041100001F040F90EE03B68DB88002B05D17868A0
:104120004FF0800101F036F904E078684FF00001AB
:1041300001F030F97868FDF7B5FA07F10807BD46D8
:1041400080BD00BF80B586B000AFF860B9607A600E
:104150004FF00003FB75FB68002B3DD0F86800F0C2
:104160003FF8034603F101039BB24FEA43039AB2BF
:104170007B681A80FB7DBA68D3187A681288D2B23D
:104180001A70FB7D03F10103FB75FB7DBA68D31840
:104190004FF003021A70FB7D03F10103FB7517E07A
:1041A000FB7DBA68D318FA6812781A70FB7D03F1A8
:1041B0000103FB75FB6803F10103FB60FB7DBA683B
:1041C000D3184FF000021A70FB7D03F10103FB7559
:1041D000FB681B78002BE3D107F11807BD4680BDB3
:1041E00080B485B000AF78604FF00003FB7307E048
:1041F000FB7B03F10103FB737B6803F101037B602D
:104200007B681B78002BF3D1FB7B184607F1140762
:10421000BD4680BC704700BF80B586B000AF7860F7
:104220004FF000037B617868FCF7C0FB0346002B6E
:1042300000F09E807868FCF7CBFB03463B613B694E
:10424000002B02D14FF0000393E0BB7C03F0080386
:10425000DBB2002B06D0786800F048FA03467A6992
:1042600013437B61BB7C03F00403DBB2002B06D05D
:10427000786800F021F903467A6913437B613B7C3F
:1042800003F00203DBB2002B0AD04FF00003FB6007
:10429000FB6843F00203FB607B68DB68FA685A61E5
:1042A000FB7C23F07F03DBB2002B06D0786800F0A4
:1042B00065F803467A6913437B617B7C03F008034E
:1042C000DBB2002B06D0786800F09EF803467A69CE
:1042D00013437B613B7C03F00803DBB2002B06D069
:1042E000786800F0DDFA03467A6913437B613B7C12
:1042F00003F01003DBB2002B06D0786800F0EEFA72
:1043000003467A6913437B617B7C03F01003DBB2C5
:10431000002B06D0786800F0EFFB03467A69134360
:104320007B617B7C03F02003DBB2002B06D0786836
:1043300000F09AFC03467A6913437B61BB7C03F06F
:104340001003DBB2002B06D0786800F0D1FC0346E6
:104350007A6913437B61BB7C03F02003DBB2002B43
:1043600006D0786800F0E2FC03467A6913437B616B
:104370007B69184607F11807BD4680BD80B586B039
:1043800000AF78607B689B7A002B11D07B6803F5C7
:1043900086731B68FB60FB686FF34103FB60FB687F
:1043A0006FF30003FB607B68D3F80C31FA681A6086
:1043B0004FF000033B613B6943F001033B617B68C5
:1043C0001B697A681269526811463A696FEA0202FB
:1043D0000A405A6040F2CC03C2F200031B689B699A
:1043E000786898474FF000037B617B6943F0004396
:1043F0007B617B68DB687A695A614FF0010318467C
:1044000007F11807BD4680BD80B586B000AF786063
:1044100040F2CC03C2F200031B685B6978689847DE
:104420007B681B699B68FB604FF000037B617B69C5
:1044300043F400637B617B68DB687A695A617B685F
:104440009B7A002B30D03B7B03F00103DBB2002BC7
:104450002AD04FF000033B613B6943F001033B610D
:104460007B68D3F80C317A68D2F80C2111683A696C
:104470000A431A603B6943F002033B617B68D3F84F
:104480000C317A68D2F80C2111683A690A431A6033
:104490004FF46D43CEF200034FF46D42CEF20002B2
:1044A000126942F006021A614FF00103184607F143
:1044B0001807BD4680BD00BF80B586B000AF7860EC
:1044C0004FF000033B614FF00003BB607868FDF7DD
:1044D000CFF803467B61FDE07B6903F00103DBB2AB
:1044E000002B00F0EF803B69DBB27868194600F0E2
:1044F0003BFC0346BB603B7A03F00103DBB2002BBD
:104500003BD03B694FF0010202FA03F3FB607B688A
:104510001B697A681269526B1146FA686FEA0202E7
:104520000A405A634FF00003BB60BB6843F00103CD
:10453000BB607A683B6903F104034FEA8303D31835
:104540009B68BA689A6040F2CC03C2F200031B6811
:104550005B683A69D2B27868114698477B68DB7825
:10456000012B0AD13B69002B07D17B6893F81131ED
:10457000042B02D17868FDF795F83B7A03F0040329
:10458000DBB2002B10D04FF00003BB60BB6843F0E0
:104590000403BB607A683B6903F104034FEA8303B9
:1045A000D3189B68BA689A603B7A03F00803DBB2C1
:1045B000002B10D04FF00003BB60BB6843F0080332
:1045C000BB607A683B6903F104034FEA8303D318A5
:1045D0009B68BA689A603B7A03F01003DBB2002B49
:1045E00010D04FF00003BB60BB6843F01003BB600A
:1045F0007A683B6903F104034FEA8303D3189B688D
:10460000BA689A603B7A03F02003DBB2002B10D02B
:104610004FF00003BB60BB6843F02003BB607A68C7
:104620003B6903F104034FEA8303D3189B68BA681C
:104630009A603B7A03F04003DBB2002B10D04FF0BE
:104640000003BB60BB6843F04003BB607A683B6912
:1046500003F104034FEA8303D3189B68BA689A6096
:104660003B7A03F00203DBB2002B10D04FF00003C3
:10467000BB60BB6843F00203BB607A683B6903F12F
:1046800004034FEA8303D3189B68BA689A603B7AA5
:1046900023F07F03DBB2002B14D07868396900F077
:1046A000ABF94FF00003BB60BB6843F08003BB6015
:1046B0007A683B6903F104034FEA8303D3189B68CC
:1046C000BA689A603B6903F101033B617B694FEA79
:1046D00053037B617B69002B7FF4FEAE4FF0010337
:1046E000184607F11807BD4680BD00BF80B586B0EB
:1046F00000AF78604FF000033B614FF00003FB60B8
:104700007868FCF77FFF03467B61BEE07B6903F0BE
:104710000103DBB2002B00F0B0803B69DBB27868AC
:104720001946FCF787FF0346FB603B7B03F0010360
:10473000DBB2002B54D04FF00003FB60FB6843F06A
:104740000103FB607A683B6903F114034FEA8303BA
:10475000D3185B68FA689A607B68DB78012B25D1F7
:104760007A683B6903F114034FEA8303D3185B684B
:104770001B69BB6079683A6913464FEA83039B184B
:104780004FEAC303CB1803F55E731A68BB68C3F323
:104790001203D11A78683A6913464FEA83039B18CB
:1047A0004FEAC303C31803F56273196040F2CC03E8
:1047B000C2F200031B681B683A69D2B278681146DE
:1047C00098477B68DB78012B0AD13B69002B07D126
:1047D0007B6893F81131052B02D17868FCF762FFF2
:1047E0003B7B03F00203DBB2002B10D04FF0000341
:1047F000FB60FB6843F00203FB607A683B6903F1EE
:1048000014034FEA8303D3185B68FA689A603B7B12
:1048100003F00403DBB2002B10D04FF00003FB6069
:10482000FB6843F00403FB607A683B6903F11403FF
:104830004FEA8303D3185B68FA689A603B7B03F006
:104840000803DBB2002B18D040F2CC03C2F2000305
:104850001B689B68786898474FF00003FB60FB6813
:1048600043F00803FB607A683B6903F114034FEAE5
:104870008303D3185B68FA689A603B6903F101030C
:104880003B617B694FEA53037B617B69002B7FF4BB
:104890003DAF4FF00103184607F11807BD4680BD34
:1048A00080B584B000AF786040F2CC03C2F2000360
:1048B0001B68DB68786898474FF00003FB60FB6873
:1048C00043F00803FB607B68DB68FA685A614FF0CD
:1048D0000103184607F11007BD4680BD80B586B0BC
:1048E00000AF78604FF000033B613B6943F0100379
:1048F0003B617B68DB687A68D268926911463A69E5
:104900006FEA02020A409A617B68DB681B6AFB60FF
:104910007B6803F55C71FB68C3F30303DBB21A46E3
:1049200013464FEA83039B184FEAC303CB187B61FE
:10493000FB68C3F34343DBB203F1FF33052B47D8D6
:1049400001A252F823F000BFD149000861490008D4
:10495000D1490008D1490008D1490008AB490008F5
:10496000BA8947F6F07313409BB2002B32D07B69B3
:10497000DA68FB68C3F30A139BB2786811461A46DB
:10498000FBF714FD7B69DA68FB68C3F30A139BB27B
:10499000D2187B69DA607B699A69FB68C3F30A13F2
:1049A0009BB2D2187B699A6114E07B6803F5B96306
:1049B000786819464FF00802FBF7F8FC7B699A69A2
:1049C000FB68C3F30A139BB2D2187B699A6102E0B9
:1049D00000BF00E000BF7B68DB687A68D26892693C
:1049E00011463A690A439A614FF00103184607F1EC
:1049F0001807BD4680BD00BF80B586B000AF7860A7
:104A000039604FF000037B614FF00003BB607B68AF
:104A100003F58C713A6813464FEA83039B184FEAFB
:104A2000C303CB18FB60FB685A69FB689B69D31A08
:104A30007B61FB689A687B699A4202D2FB689B683B
:104A40007B617B6903F103034FEA93033B617A685F
:104A50003B6803F104034FEA8303D3189B689B6907
:104A6000BB6032E0FB685A69FB689B69D31A7B61C3
:104A7000FB689A687B699A4202D2FB689B687B61FB
:104A80007B6903F103034FEA93033B61FB68D96839
:104A90003B68DAB27B699BB27868FBF745FCFB6840
:104AA000DA687B69D218FB68DA60FB689A697B690F
:104AB000D218FB689A617A683B6803F104034FEAF5
:104AC0008303D3189B689B69BB603B891A463B698B
:104AD0009A4209D9FB689A69FB685B699A4203D2DA
:104AE000FB685B69002BBDD14FF00103184607F14D
:104AF0001807BD4680BD00BF80B58AB000AF7860A2
:104B00004FF000033B614FF000033B624FF00003A6
:104B1000FB614FF00003BB614FF000037B614FF07E
:104B20000003FB603B6943F001033B617B681B6949
:104B30007A681269526811463A696FEA02020A40BD
:104B40005A6078684FF00001FBF778FE4FF00003E1
:104B50007B6219E07A687B6A03F104034FEA8303FE
:104B6000D3189B684FF0FF029A607A687B6A03F162
:104B700014034FEA8303D3185B684FF0FF029A6077
:104B80007B6A03F101037B627B685B781A467B6A70
:104B90009A42DFD87B681B694FF0FF329A613B6A0B
:104BA0004FF0010262F30F033B623B6A4FF00102D8
:104BB00062F31F433B627B681B693A6ADA61FB69F7
:104BC00043F00803FB61FB6943F00103FB61FB69F0
:104BD00043F00403FB61FB6943F00203FB617B6864
:104BE0001B69FA695A61BB6943F00103BB61BB6988
:104BF00043F00803BB61BB6943F00203BB61BB69BF
:104C000043F00403BB61BB6943F02003BB617B68D5
:104C10001B69BA691A617B681B691B687B617B69C8
:104C20006FF30A137B617B681B697A691A60786885
:104C3000FCF738FD4FF00003FB60FB6843F4805342
:104C4000FB607B68DB68FA685A6140F2CC03C2F211
:104C500000031B681B69786898474FF001031846EA
:104C600007F12807BD4680BD80B584B000AF7860ED
:104C70007868FCF7C7F87B68DB68DB68BB6078683E
:104C8000FCF798F80346032B0ED17B684FF0000227
:104C90009A707B684FF400729A80BB684FF00902EB
:104CA00062F38D23BB600DE07B684FF001029A70C8
:104CB0007B684FF040029A80BB684FF0050262F3B8
:104CC0008D23BB607B68DB68BA68DA604FF0000355
:104CD000FB60FB6843F40053FB607B68DB68FA68A9
:104CE0005A614FF00103184607F11007BD4680BD19
:104CF00080B584B000AF78604FF00003FB6040F2F5
:104D0000CC03C2F200031B68DB6978689847FB6834
:104D100043F48013FB607B68DB68FA685A614FF0EC
:104D20000103184607F11007BD4680BD80B584B069
:104D300000AF78604FF00003FB6040F2CC03C2F29A
:104D400000031B681B6A78689847FB6843F40013EC
:104D5000FB607B68DB68FA685A614FF00103184614
:104D600007F11007BD4680BD80B487B000AF786002
:104D70000B46FB707B681B691B697B617B681B6949
:104D80005B6B3B61FB783A6922FA03F34FEAC3138A
:104D9000DBB27A6913437B61FB787A6803F1040321
:104DA0004FEA8303D3189B689B681A467B691340BC
:104DB000FB60FB68184607F11C07BD4680BC7047C6
:104DC00080B485B000AF78604FF00003FB604FF413
:104DD0007053C4F20103FB607B689B79002B7ED08B
:104DE0004FF47053C4F201034FF47052C4F2010245
:104DF000126811467A6812686FEA02020A401A6065
:104E00004FF47053C4F201034FF47052C4F2010224
:104E1000526811467A6812686FEA02020A405A60C4
:104E20007B681B79FA68D318FB60FB68FA68116825
:104E30007A6812680A431A604FF47053C4F201038F
:104E40004FF47052C4F20102926811467A681268F7
:104E50006FEA02020A409A604FF47053C4F20103F1
:104E60004FF47052C4F20102D26811467A68126897
:104E70006FEA02020A40DA607B685B79102B1CD172
:104E80004FF47053C4F201034FF47052C4F20102A4
:104E9000926811467A6812680A439A604FF4705318
:104EA000C4F201034FF47052C4F20102D2681146F9
:104EB0007A6812680A43DA601FE04FF47053C4F254
:104EC0000103FB607B685B79FA68D318FB60FB68C1
:104ED000FA6811687A6812680A431A600DE07B6804
:104EE0001B79FA68D318FB60FB68FA6811687A6866
:104EF00012686FEA02020A401A6007F11407BD4601
:104F000080BC704780B483B000AF78604FF47053BA
:104F1000C4F201037A685A6107F10C07BD4680BCF0
:104F2000704700BF80B483B000AF78604FF46D432A
:104F3000CEF200037A6842F0BE6242F42022DA60C8
:104F400007F10C07BD4680BC704700BF80B485B038
:104F500000AF78604FF00003FB734FF00003BB73AA
:104F60004FF00F037B737B68DB78002B45D04FF449
:104F70006D43CEF20003DB686FEA030303F4E063E2
:104F80004FEA1323FB73FB7BC3F10403BB737A7BF0
:104F9000FB7B42FA03F37B737B685B781A46BB7B2F
:104FA00002FA03F3FB737B689A787B7B1340DAB2D7
:104FB000FB7B1343FB73FB7B4FEA0313FB734FF441
:104FC0006143CEF200037A6812789B18FA7B83F86B
:104FD00000234FF46143CEF200037A6812784FEA5F
:104FE0005212D2B27968097801F01F014FF0010026
:104FF00000FA01F143F8221014E04FF46143CEF2BD
:1050000000037A6812784FEA5212D2B279680978AE
:1050100001F01F014FF0010000FA01F102F120023E
:1050200043F8221007F11407BD4680BC704700BF4B
:1050300080B584B000AF78600B46FB70FB78786871
:105040001946FBF7E7F97B684FF0010283F812215C
:105050007B684FF0000283F813214FF00003FB60E0
:105060002BE07B6803F58C71FA6813464FEA8303E3
:105070009B184FEAC303CB18BB60BB684FF001021B
:105080005A70FB68DAB2BB681A70FB689AB2BB68E8
:10509000DA80BB684FF00002DA70BB684FF0400264
:1050A0009A60BB684FF00002DA60BB684FF0000204
:1050B0005A61FB6803F10103FB607B685B781A4669
:1050C000FB689A42CDD84FF00003FB602BE07B6871
:1050D00003F55C71FA6813464FEA83039B184FEAA5
:1050E000C303CB18BB60BB684FF000025A70FB686B
:1050F000DAB2BB681A70FB689AB2BB68DA80BB6828
:105100004FF00002DA70BB684FF040029A60BB6853
:105110004FF00002DA60BB684FF000025A61FB6892
:1051200003F10103FB607B685B781A46FB689A42D7
:10513000CDD87868FBF762FB7868FBF745FA7868AA
:105140004FF00001FBF7F0FB7868FBF775FC78681F
:10515000FBF736FB07F11007BD4680BD80B584B074
:1051600000AF7860F9703A80BB70FB785BB2002BBF
:105170000EDA7B6803F58C71FB7803F07F0213462F
:105180004FEA83039B184FEAC303CB18FB600DE083
:105190007B6803F55C71FB7803F07F0213464FEAEE
:1051A00083039B184FEAC303CB18FB60FB7803F023
:1051B0007F03DAB2FB681A70FB784FEAD313DAB2D6
:1051C000FB685A703A88FB689A60FB68BA78DA70B4
:1051D000FB685B78002B04D0FB681B781A46FB68E1
:1051E000DA80BB78022B03D1FB684FF000021A7102
:1051F0007868F968FBF746FE4FF00003184607F1A0
:105200001007BD4680BD00BF80B584B000AF786098
:105210000B46FB70FB785BB2002B0EDA7B6803F564
:105220008C71FB7803F07F0213464FEA83039B18CF
:105230004FEAC303CB18FB600DE07B6803F55C719C
:10524000FB7803F07F0213464FEA83039B184FEA73
:10525000C303CB18FB60FB7803F07F03DAB2FB6873
:105260001A70FB784FEAD313DAB2FB685A70786889
:10527000F968FBF781FE4FF00003184607F11007AD
:10528000BD4680BD80B586B000AFF8607A600A4642
:10529000FA723B81FB6803F55C71FB7A03F07F02D5
:1052A00013464FEA83039B184FEAC303CB187B6175
:1052B0007B697A68DA603A897B695A617B694FF069
:1052C00000029A617B694FF000025A70FB7A03F08A
:1052D0007F03DAB27B691A70FB68DB78012B02D19D
:1052E0007A687B691A617B691B78002B04D1F868A6
:1052F0007969FBF7FBFF03E0F8687969FBF78CFE3F
:105300004FF00003184607F11807BD4680BD00BFE7
:1053100080B586B000AFF8607A603B600B46FB72E8
:10532000FB6803F58C71FB7A03F07F0213464FEAAA
:1053300083039B184FEAC303CB187B617B694FF053
:1053400001025A70FB7A03F07F03DAB27B691A70AC
:105350007B697A68DA607A687B691A617B694FF0E9
:1053600000029A617B693A685A617B691B78002B5D
:1053700004D1F8687969FBF7B9FF03E0F868796947
:10538000FBF74AFE4FF00003184607F11807BD4629
:1053900080BD00BF80B584B000AF78600B46FB7065
:1053A000FB785BB2002B0EDA7B6803F58C71FB781F
:1053B00003F07F0213464FEA83039B184FEAC303AF
:1053C000CB18FB600BE07B6803F55C71FA78134641
:1053D0004FEA83039B184FEAC303CB18FB60FB68BB
:1053E0004FF001029A70FB7803F07F03DAB2FB689A
:1053F0001A70FB784FEAD313DAB2FB685A707868F8
:10540000F968FCF773F84FF00003184607F110072E
:10541000BD4680BD80B584B000AF78600B46FB70A0
:10542000FB785BB2002B0EDA7B6803F58C71FB789E
:1054300003F07F0213464FEA83039B184FEAC3032E
:10544000CB18FB600BE07B6803F55C71FA781346C0
:105450004FEA83039B184FEAC303CB18FB60FB683A
:105460004FF000029A70FB7803F07F03DAB2FB681A
:105470001A70FB784FEAD313DAB2FB685A70786877
:10548000F968FCF77DF84FF00003184607F11007A4
:10549000BD4680BD80B582B000AF78600B46FB7022
:1054A000FB785BB2002B07DAFB7803F07F037868A8
:1054B0001946FBF7C3F902E07868FBF7FFF94FF0F4
:1054C0000003184607F10807BD4680BD80B485B0CB
:1054D00000AF78600B46FB704FF00003FB60FB7879
:1054E00003F07F03DAB2FB6862F30A13FB607B68A8
:1054F0001B697A68126912681146FA680A431A60D1
:1055000007F11407BD4680BC704700BF80B586B068
:1055100000AFF860B9601346FB804FF00003FB75E5
:10552000FA88FB68C3F83821FA88FB68C3F834218D
:10553000FB684FF0020283F81121FB88F8684FF0F6
:105540000001BA68FFF7E4FEFB7D184607F1180773
:10555000BD4680BD80B586B000AFF860B960134627
:10556000FB804FF00003FB75FB88F8684FF00001EB
:10557000BA68FFF7CDFEFB7D184607F11807BD4658
:1055800080BD00BF80B586B000AFF860B96013463B
:10559000FB804FF00003FB75FB88F8684FF00001BB
:1055A000BA68FFF76FFEFB7D184607F11807BD4686
:1055B00080BD00BF80B584B000AF78604FF00003BD
:1055C000FB737B684FF0040283F8112178684FF079
:1055D00000014FF000024FF00003FFF799FE7868DA
:1055E000FCF760F8FB7B184607F11007BD4680BD4D
:1055F00080B584B000AF78604FF00003FB737B6828
:105600004FF0050283F8112178684FF000014FF048
:1056100000024FF00003FFF735FE7868FCF742F810
:10562000FB7B184607F11007BD4680BD0010002027
:105630000040008008000000080000000800000092
:10564000080000000100000001000000010000004F
:10565000000000000000000006000000484944204F
:10566000492F4F20696E204853204D6F646500001C
:1056700048494420492F4F20696E204653204D6FE2
:105680006465000053544D6963726F656C656374A3
:10569000726F6E69637300003030303030303030FC
:1056A00030313144000000003030303030303030A4
:1056B000303131450000000048494420436F6E6698
:1056C0006967000048494420496E746572666163E9
:0456D0006500000071
:1056D400711700087D170008911700089D1700082E
:1056E400A91700080000000000000000000C0240A0
:1056F400000C0240000C0240000C0240000002407A
:10570400351A0008891A0008B91A000800000000B8
:10571400000000007D1C0008A11C0008000000001F
:105724000000000000000000551C000809022900C8
:10573400010100E032090400000203000000092115
:1057440000020001221700070581033F000107053D
:1057540001033F0001000000058C0901A1010901BA
:10576400150025FF953F7508810209029102C000CA
:10577400E51D0008B91E0008751D00087920000801
:10578400CD1F00084D200008212000080921000831
:105794002D2100080000000000000000A0000020EF
:1057A400C92B0008F12B00086D2C0008192C0008E7
:1057B400A12C0008F52C0008492D00081201000254
:1057C400000000407704205600020102030100009B
:1057D4000A0600020000004001000000040309045E
:0400000508000000EF
:00000001FF
